{
  "contractName": "Capstone",
  "abi": [
    {
      "constant": true,
      "inputs": [],
      "name": "fcount",
      "outputs": [
        {
          "name": "",
          "type": "uint256"
        }
      ],
      "payable": false,
      "stateMutability": "view",
      "type": "function",
      "signature": "0x0bf4a119"
    }
  ],
  "bytecode": "0x608060405260008055348015601357600080fd5b50609e806100226000396000f3fe608060405260043610603f576000357c0100000000000000000000000000000000000000000000000000000000900463ffffffff1680630bf4a119146044575b600080fd5b348015604f57600080fd5b506056606c565b6040518082815260200191505060405180910390f35b6000548156fea165627a7a72305820997e576ffc9a3d95bb062e881882c01bf4644681d8af915a733f3909a61da3730029",
  "source": "pragma solidity ^0.5.0;\r\n\r\ncontract Capstone{\r\n    uint public fcount = 0;\r\n\r\n\r\n}\r\n\r\n",
  "sourcePath": "C:/Users/JAYADEEP REDDY/OneDrive/Desktop/capstone/dapp/contracts/Capstone.sol",
  "compiler": {
    "name": "solc",
    "version": "0.5.0+commit.1d4f565a.Emscripten.clang"
  },
  "schemaVersion": "3.0.1",
  "updatedAt": "2023-08-26T18:05:58.467Z",
  "devdoc": {
    "methods": {}
  },
  "userdoc": {
    "methods": {}
  }
}