{
  "contractName": "Capstone",
  "abi": [
    {
      "constant": true,
      "inputs": [],
      "name": "userCount",
      "outputs": [
        {
          "name": "",
          "type": "uint256"
        }
      ],
      "payable": false,
      "stateMutability": "view",
      "type": "function",
      "signature": "0x07973ccf"
    },
    {
      "constant": true,
      "inputs": [
        {
          "name": "",
          "type": "uint256"
        }
      ],
      "name": "user",
      "outputs": [
        {
          "name": "id",
          "type": "uint256"
        },
        {
          "name": "name",
          "type": "string"
        },
        {
          "name": "content",
          "type": "string"
        },
        {
          "name": "joined",
          "type": "bool"
        }
      ],
      "payable": false,
      "stateMutability": "view",
      "type": "function",
      "signature": "0x553275be"
    },
    {
      "inputs": [],
      "payable": false,
      "stateMutability": "nonpayable",
      "type": "constructor",
      "signature": "constructor"
    },
    {
      "anonymous": false,
      "inputs": [
        {
          "indexed": false,
          "name": "id",
          "type": "uint256"
        },
        {
          "indexed": false,
          "name": "name",
          "type": "string"
        },
        {
          "indexed": false,
          "name": "content",
          "type": "string"
        },
        {
          "indexed": false,
          "name": "joined",
          "type": "bool"
        }
      ],
      "name": "UserCreated",
      "type": "event",
      "signature": "0x3a425ab9e3fb46be348ca6cba8febe8a92a06b394e6279ef66c67876507b70e7"
    },
    {
      "constant": false,
      "inputs": [
        {
          "name": "_name",
          "type": "string"
        },
        {
          "name": "_content",
          "type": "string"
        }
      ],
      "name": "createUser",
      "outputs": [],
      "payable": false,
      "stateMutability": "nonpayable",
      "type": "function",
      "signature": "0x87b162b5"
    }
  ],
  "bytecode": "0x60806040526000805534801561001457600080fd5b506100986040805190810160405280600b81526020017f64656661756c74557365720000000000000000000000000000000000000000008152506040805190810160405280601481526020017f436865636b696e67207468652070726f6a65637400000000000000000000000081525061009d640100000000026401000000009004565b6102e7565b6000805460019081018083556040805160808101825282815260208082018881528284018890526060830187905293865284815291909420845181559151805192936100f19390850192919091019061024c565b506040820151805161010d91600284019160209091019061024c565b5060608201518160030160006101000a81548160ff0219169083151502179055509050507f3a425ab9e3fb46be348ca6cba8febe8a92a06b394e6279ef66c67876507b70e76000548383600060405180858152602001806020018060200184151515158152602001838103835286818151815260200191508051906020019080838360005b838110156101aa578181015183820152602001610192565b50505050905090810190601f1680156101d75780820380516001836020036101000a031916815260200191505b50838103825285518152855160209182019187019080838360005b8381101561020a5781810151838201526020016101f2565b50505050905090810190601f1680156102375780820380516001836020036101000a031916815260200191505b50965050505050505060405180910390a15050565b828054600181600116156101000203166002900490600052602060002090601f016020900481019282601f1061028d57805160ff19168380011785556102ba565b828001600101855582156102ba579182015b828111156102ba57825182559160200191906001019061029f565b506102c69291506102ca565b5090565b6102e491905b808211156102c657600081556001016102d0565b90565b610695806102f66000396000f3fe6080604052600436106100565763ffffffff7c010000000000000000000000000000000000000000000000000000000060003504166307973ccf811461005b578063553275be1461008257806387b162b51461019c575b600080fd5b34801561006757600080fd5b506100706102d8565b60408051918252519081900360200190f35b34801561008e57600080fd5b506100ac600480360360208110156100a557600080fd5b50356102de565b60405180858152602001806020018060200184151515158152602001838103835286818151815260200191508051906020019080838360005b838110156100fd5781810151838201526020016100e5565b50505050905090810190601f16801561012a5780820380516001836020036101000a031916815260200191505b50838103825285518152855160209182019187019080838360005b8381101561015d578181015183820152602001610145565b50505050905090810190601f16801561018a5780820380516001836020036101000a031916815260200191505b50965050505050505060405180910390f35b3480156101a857600080fd5b506102d6600480360360408110156101bf57600080fd5b8101906020810181356401000000008111156101da57600080fd5b8201836020820111156101ec57600080fd5b8035906020019184600183028401116401000000008311171561020e57600080fd5b91908080601f016020809104026020016040519081016040528093929190818152602001838380828437600092019190915250929594936020810193503591505064010000000081111561026157600080fd5b82018360208201111561027357600080fd5b8035906020019184600183028401116401000000008311171561029557600080fd5b91908080601f01602080910402602001604051908101604052809392919081815260200183838082843760009201919091525092955061041f945050505050565b005b60005481565b600160208181526000928352604092839020805481840180548651600296821615610100026000190190911695909504601f8101859004850286018501909652858552909491939290919083018282801561037a5780601f1061034f5761010080835404028352916020019161037a565b820191906000526020600020905b81548152906001019060200180831161035d57829003601f168201915b50505060028085018054604080516020601f600019610100600187161502019094169590950492830185900485028101850190915281815295969594509092509083018282801561040c5780601f106103e15761010080835404028352916020019161040c565b820191906000526020600020905b8154815290600101906020018083116103ef57829003601f168201915b5050506003909301549192505060ff1684565b600080546001908101808355604080516080810182528281526020808201888152828401889052606083018790529386528481529190942084518155915180519293610473939085019291909101906105ce565b506040820151805161048f9160028401916020909101906105ce565b5060608201518160030160006101000a81548160ff0219169083151502179055509050507f3a425ab9e3fb46be348ca6cba8febe8a92a06b394e6279ef66c67876507b70e76000548383600060405180858152602001806020018060200184151515158152602001838103835286818151815260200191508051906020019080838360005b8381101561052c578181015183820152602001610514565b50505050905090810190601f1680156105595780820380516001836020036101000a031916815260200191505b50838103825285518152855160209182019187019080838360005b8381101561058c578181015183820152602001610574565b50505050905090810190601f1680156105b95780820380516001836020036101000a031916815260200191505b50965050505050505060405180910390a15050565b828054600181600116156101000203166002900490600052602060002090601f016020900481019282601f1061060f57805160ff191683800117855561063c565b8280016001018555821561063c579182015b8281111561063c578251825591602001919060010190610621565b5061064892915061064c565b5090565b61066691905b808211156106485760008155600101610652565b9056fea165627a7a723058209f98865c07576c476f4dc4743191ffee8d5fd5e7ffdbafed7990a137a11a3d8f0029",
  "source": "pragma solidity ^0.5.0;\n\ncontract Capstone{\n    uint public userCount = 0;\n\n    struct Join {\n        uint id;\n        string name;\n        string content;\n        bool joined;\n    }\n    mapping(uint => Join)public user;\n\n\n    event UserCreated(\n        uint id,\n        string name,\n        string content,\n        bool joined\n\n\n    );\n    \n\n    constructor() public{\n        createUser(\"defaultUser\", \"Checking the project\");\n    }\n\n    function createUser(string memory _name, string memory _content) public{\n        userCount ++;\n        user[userCount] = Join(userCount, _name, _content, false);\n        emit UserCreated(userCount, _name, _content, false);\n    }\n\n}\n\n",
  "sourcePath": "/home/vboxuser/capstone/dapp/contracts/Capstone.sol",
  "compiler": {
    "name": "solc",
    "version": "0.5.0+commit.1d4f565a.Emscripten.clang"
  },
  "schemaVersion": "3.0.1",
  "updatedAt": "2023-11-09T09:19:48.872Z",
  "devdoc": {
    "methods": {}
  },
  "userdoc": {
    "methods": {}
  }
}