{
  "contractName": "SimpleWallet",
  "abi": [
    {
      "constant": true,
      "inputs": [],
      "name": "owner",
      "outputs": [
        {
          "name": "",
          "type": "address"
        }
      ],
      "payable": false,
      "stateMutability": "view",
      "type": "function",
      "signature": "0x8da5cb5b"
    },
    {
      "inputs": [],
      "payable": false,
      "stateMutability": "nonpayable",
      "type": "constructor",
      "signature": "constructor"
    },
    {
      "anonymous": false,
      "inputs": [
        {
          "indexed": true,
          "name": "from",
          "type": "address"
        },
        {
          "indexed": true,
          "name": "to",
          "type": "address"
        },
        {
          "indexed": false,
          "name": "value",
          "type": "uint256"
        }
      ],
      "name": "Transfer",
      "type": "event",
      "signature": "0xddf252ad1be2c89b69c2b068fc378daa952ba7f163c4a11628f55a4df523b3ef"
    },
    {
      "constant": false,
      "inputs": [
        {
          "name": "_to",
          "type": "address"
        }
      ],
      "name": "transfer",
      "outputs": [],
      "payable": true,
      "stateMutability": "payable",
      "type": "function",
      "signature": "0x1a695230"
    }
  ],
  "bytecode": "0x608060405234801561001057600080fd5b5060008054600160a060020a031916331790556102bc806100326000396000f3fe60806040526004361061004b5763ffffffff7c01000000000000000000000000000000000000000000000000000000006000350416631a69523081146100505780638da5cb5b14610078575b600080fd5b6100766004803603602081101561006657600080fd5b5035600160a060020a03166100a9565b005b34801561008457600080fd5b5061008d610281565b60408051600160a060020a039092168252519081900360200190f35b600054600160a060020a0316331461012257604080517f08c379a000000000000000000000000000000000000000000000000000000000815260206004820152600d60248201527f4e6f7420746865206f776e657200000000000000000000000000000000000000604482015290519081900360640190fd5b600160a060020a038116151561019957604080517f08c379a000000000000000000000000000000000000000000000000000000000815260206004820152601960248201527f496e76616c696420726563697069656e74206164647265737300000000000000604482015290519081900360640190fd5b6000341161020857604080517f08c379a000000000000000000000000000000000000000000000000000000000815260206004820152601c60248201527f56616c7565206d7573742062652067726561746572207468616e203000000000604482015290519081900360640190fd5b604051600160a060020a038216903480156108fc02916000818181858888f1935050505015801561023d573d6000803e3d6000fd5b50604080513481529051600160a060020a0383169133917fddf252ad1be2c89b69c2b068fc378daa952ba7f163c4a11628f55a4df523b3ef9181900360200190a350565b600054600160a060020a03168156fea165627a7a72305820cf246c26aab1170e254fdeac5aa666a42a1e0cf84dd306f744302339a51d2cee0029",
  "source": "pragma solidity ^0.5.0;\r\n\r\ncontract SimpleWallet {\r\n    address public owner;\r\n\r\n    constructor() public {\r\n        owner = msg.sender;\r\n    }\r\n\r\n    modifier onlyOwner() {\r\n        require(msg.sender == owner, \"Not the owner\");\r\n        _;\r\n    }\r\n\r\n\r\n    event Transfer(address indexed from, address indexed to, uint256 value);\r\n\r\n    \r\n    function transfer(address payable _to) public payable onlyOwner {\r\n        require(_to != address(0), \"Invalid recipient address\");\r\n        require(msg.value > 0, \"Value must be greater than 0\");\r\n\r\n        // Transfer funds\r\n        _to.transfer(msg.value);\r\n\r\n        // Emit event\r\n        emit Transfer(msg.sender, _to, msg.value);\r\n    }\r\n}\r\n",
  "sourcePath": "C:/Users/JAYADEEP REDDY/OneDrive/Desktop/capstone/dapp/contracts/SimpleWallet.sol",
  "compiler": {
    "name": "solc",
    "version": "0.5.0+commit.1d4f565a.Emscripten.clang"
  },
  "schemaVersion": "3.0.1",
  "updatedAt": "2023-11-25T21:43:47.138Z",
  "devdoc": {
    "methods": {}
  },
  "userdoc": {
    "methods": {}
  }
}