{
  "contractName": "UserAuth",
  "abi": [
    {
      "constant": true,
      "inputs": [],
      "name": "userCount",
      "outputs": [
        {
          "name": "",
          "type": "uint256"
        }
      ],
      "payable": false,
      "stateMutability": "view",
      "type": "function",
      "signature": "0x07973ccf"
    },
    {
      "constant": true,
      "inputs": [
        {
          "name": "",
          "type": "address"
        }
      ],
      "name": "users",
      "outputs": [
        {
          "name": "id",
          "type": "uint256"
        },
        {
          "name": "username",
          "type": "string"
        },
        {
          "name": "password",
          "type": "string"
        },
        {
          "name": "exists",
          "type": "bool"
        }
      ],
      "payable": false,
      "stateMutability": "view",
      "type": "function",
      "signature": "0xa87430ba"
    },
    {
      "anonymous": false,
      "inputs": [
        {
          "indexed": true,
          "name": "userId",
          "type": "uint256"
        },
        {
          "indexed": true,
          "name": "userAddress",
          "type": "address"
        },
        {
          "indexed": false,
          "name": "username",
          "type": "string"
        }
      ],
      "name": "UserRegistered",
      "type": "event",
      "signature": "0x8d76d60617424d83544323e2322cb8d86537451c9b3d991886ce6f4721e3865e"
    },
    {
      "anonymous": false,
      "inputs": [
        {
          "indexed": true,
          "name": "userAddress",
          "type": "address"
        },
        {
          "indexed": false,
          "name": "username",
          "type": "string"
        }
      ],
      "name": "UserLoggedIn",
      "type": "event",
      "signature": "0xfd7a49bf0be38d61ec3404f450519a68eb8bdd1edb8729b6c5f8c139e9dafeaf"
    },
    {
      "constant": false,
      "inputs": [
        {
          "name": "_username",
          "type": "string"
        },
        {
          "name": "_password",
          "type": "string"
        }
      ],
      "name": "register",
      "outputs": [],
      "payable": false,
      "stateMutability": "nonpayable",
      "type": "function",
      "signature": "0x3ffbd47f"
    },
    {
      "constant": false,
      "inputs": [
        {
          "name": "_username",
          "type": "string"
        },
        {
          "name": "_password",
          "type": "string"
        }
      ],
      "name": "login",
      "outputs": [],
      "payable": false,
      "stateMutability": "nonpayable",
      "type": "function",
      "signature": "0x58467dbc"
    },
    {
      "constant": true,
      "inputs": [],
      "name": "getUser",
      "outputs": [
        {
          "name": "",
          "type": "uint256"
        },
        {
          "name": "",
          "type": "string"
        },
        {
          "name": "",
          "type": "bool"
        }
      ],
      "payable": false,
      "stateMutability": "view",
      "type": "function",
      "signature": "0x832880e7"
    }
  ],
  "bytecode": "0x608060405234801561001057600080fd5b50610d6e806100206000396000f3fe60806040526004361061006c5763ffffffff7c010000000000000000000000000000000000000000000000000000000060003504166307973ccf81146100715780633ffbd47f1461009857806358467dbc146101d4578063832880e71461030e578063a87430ba146103ad575b600080fd5b34801561007d57600080fd5b506100866104dd565b60408051918252519081900360200190f35b3480156100a457600080fd5b506101d2600480360360408110156100bb57600080fd5b8101906020810181356401000000008111156100d657600080fd5b8201836020820111156100e857600080fd5b8035906020019184600183028401116401000000008311171561010a57600080fd5b91908080601f016020809104026020016040519081016040528093929190818152602001838380828437600092019190915250929594936020810193503591505064010000000081111561015d57600080fd5b82018360208201111561016f57600080fd5b8035906020019184600183028401116401000000008311171561019157600080fd5b91908080601f0160208091040260200160405190810160405280939291908181526020018383808284376000920191909152509295506104e3945050505050565b005b3480156101e057600080fd5b506101d2600480360360408110156101f757600080fd5b81019060208101813564010000000081111561021257600080fd5b82018360208201111561022457600080fd5b8035906020019184600183028401116401000000008311171561024657600080fd5b91908080601f016020809104026020016040519081016040528093929190818152602001838380828437600092019190915250929594936020810193503591505064010000000081111561029957600080fd5b8201836020820111156102ab57600080fd5b803590602001918460018302840111640100000000831117156102cd57600080fd5b91908080601f01602080910402602001604051908101604052809392919081815260200183838082843760009201919091525092955061067c945050505050565b34801561031a57600080fd5b50610323610aa9565b604051808481526020018060200183151515158152602001828103825284818151815260200191508051906020019080838360005b83811015610370578181015183820152602001610358565b50505050905090810190601f16801561039d5780820380516001836020036101000a031916815260200191505b5094505050505060405180910390f35b3480156103b957600080fd5b506103ed600480360360208110156103d057600080fd5b503573ffffffffffffffffffffffffffffffffffffffff16610b68565b60405180858152602001806020018060200184151515158152602001838103835286818151815260200191508051906020019080838360005b8381101561043e578181015183820152602001610426565b50505050905090810190601f16801561046b5780820380516001836020036101000a031916815260200191505b50838103825285518152855160209182019187019080838360005b8381101561049e578181015183820152602001610486565b50505050905090810190601f1680156104cb5780820380516001836020036101000a031916815260200191505b50965050505050505060405180910390f35b60015481565b3360009081526020819052604090206003015460ff161561054e576040805160e560020a62461bcd02815260206004820152601760248201527f5573657220616c72656164792072656769737465726564000000000000000000604482015290519081900360640190fd5b60018054810180825560408051608081018252918252602080830186815283830186905260608401859052336000908152808352929092208351815591518051939492936105a3938501929190910190610ca7565b50604082015180516105bf916002840191602090910190610ca7565b50606091909101516003909101805460ff191691151591909117905560015460408051602080825285518183015285513394937f8d76d60617424d83544323e2322cb8d86537451c9b3d991886ce6f4721e3865e9388939092839283019185019080838360005b8381101561063e578181015183820152602001610626565b50505050905090810190601f16801561066b5780820380516001836020036101000a031916815260200191505b509250505060405180910390a35050565b3360009081526020819052604090206003015460ff1615156106e8576040805160e560020a62461bcd02815260206004820152601360248201527f5573657220646f6573206e6f7420657869737400000000000000000000000000604482015290519081900360640190fd5b816040516020018082805190602001908083835b6020831061071b5780518252601f1990920191602091820191016106fc565b6001836020036101000a038019825116818451168082178552505050505050905001915050604051602081830303815290604052805190602001206000803373ffffffffffffffffffffffffffffffffffffffff1673ffffffffffffffffffffffffffffffffffffffff16815260200190815260200160002060010160405160200180828054600181600116156101000203166002900480156107f55780601f106107d35761010080835404028352918201916107f5565b820191906000526020600020905b8154815290600101906020018083116107e1575b505091505060405160208183030381529060405280519060200120141515610867576040805160e560020a62461bcd02815260206004820152601260248201527f496e636f727265637420757365726e616d650000000000000000000000000000604482015290519081900360640190fd5b806040516020018082805190602001908083835b6020831061089a5780518252601f19909201916020918201910161087b565b6001836020036101000a038019825116818451168082178552505050505050905001915050604051602081830303815290604052805190602001206000803373ffffffffffffffffffffffffffffffffffffffff1673ffffffffffffffffffffffffffffffffffffffff16815260200190815260200160002060020160405160200180828054600181600116156101000203166002900480156109745780601f10610952576101008083540402835291820191610974565b820191906000526020600020905b815481529060010190602001808311610960575b5050915050604051602081830303815290604052805190602001201415156109e6576040805160e560020a62461bcd02815260206004820152601260248201527f496e636f72726563742070617373776f72640000000000000000000000000000604482015290519081900360640190fd5b3360008181526020818152604091829020825182815260019182018054600293811615610100026000190116929092049281018390527ffd7a49bf0be38d61ec3404f450519a68eb8bdd1edb8729b6c5f8c139e9dafeaf939192909182919082019084908015610a975780601f10610a6c57610100808354040283529160200191610a97565b820191906000526020600020905b815481529060010190602001808311610a7a57829003601f168201915b50509250505060405180910390a25050565b3360009081526020818152604080832080546003820154600192830180548551600261010096831615969096026000190190911694909404601f810187900487028501870190955284845260609587959394919360ff909316928491830182828015610b565780601f10610b2b57610100808354040283529160200191610b56565b820191906000526020600020905b815481529060010190602001808311610b3957829003601f168201915b50505050509150925092509250909192565b600060208181529181526040908190208054600180830180548551600293821615610100026000190190911692909204601f8101879004870283018701909552848252919492939092830182828015610c025780601f10610bd757610100808354040283529160200191610c02565b820191906000526020600020905b815481529060010190602001808311610be557829003601f168201915b50505060028085018054604080516020601f6000196101006001871615020190941695909504928301859004850281018501909152818152959695945090925090830182828015610c945780601f10610c6957610100808354040283529160200191610c94565b820191906000526020600020905b815481529060010190602001808311610c7757829003601f168201915b5050506003909301549192505060ff1684565b828054600181600116156101000203166002900490600052602060002090601f016020900481019282601f10610ce857805160ff1916838001178555610d15565b82800160010185558215610d15579182015b82811115610d15578251825591602001919060010190610cfa565b50610d21929150610d25565b5090565b610d3f91905b80821115610d215760008155600101610d2b565b9056fea165627a7a723058207a8b131437b6c09cc6698cec9d499f78b49fa546aee50ecbedac3a75f4637e7d0029",
  "source": "pragma solidity ^0.5.0;\r\n\r\ncontract UserAuth {\r\n    struct User {\r\n        uint id;\r\n        string username;\r\n        string password;\r\n        bool exists;\r\n    }\r\n\r\n    mapping(address => User) public users;\r\n    uint public userCount;\r\n\r\n    event UserRegistered(uint indexed userId, address indexed userAddress, string username);\r\n    event UserLoggedIn(address indexed userAddress, string username);\r\n\r\n    function register(string memory _username, string memory _password) public {\r\n        require(!users[msg.sender].exists, \"User already registered\");\r\n\r\n        userCount++;\r\n        users[msg.sender] = User(userCount, _username, _password, true);\r\n        emit UserRegistered(userCount, msg.sender, _username);\r\n    }\r\n     function login(string memory _username, string memory _password) public {\r\n        require(users[msg.sender].exists, \"User does not exist\");\r\n        require(keccak256(abi.encodePacked(users[msg.sender].username)) == keccak256(abi.encodePacked(_username)), \"Incorrect username\");\r\n        require(keccak256(abi.encodePacked(users[msg.sender].password)) == keccak256(abi.encodePacked(_password)), \"Incorrect password\");\r\n\r\n        emit UserLoggedIn(msg.sender, users[msg.sender].username);\r\n    }\r\n\r\n    function getUser() public view returns (uint, string memory, bool) {\r\n        return (users[msg.sender].id, users[msg.sender].username, users[msg.sender].exists);\r\n    }\r\n}\r\n",
  "sourcePath": "C:/Users/JAYADEEP REDDY/OneDrive/Desktop/capstone/dapp/contracts/UserAuth.sol",
  "compiler": {
    "name": "solc",
    "version": "0.5.0+commit.1d4f565a.Emscripten.clang"
  },
  "schemaVersion": "3.0.1",
  "updatedAt": "2023-11-25T21:43:47.140Z",
  "devdoc": {
    "methods": {}
  },
  "userdoc": {
    "methods": {}
  }
}